:10000E0020202020202020202020202020202020E2
:10001E00003230002D00C8D500C1F900CEE500CB6E
:10002E00C400B6FE00D2BB00D0C7C6DA00B800D0FE
:10003E00C100C8C900B9EF00BCD700D2D200B1FBD5
:10004E0000B6A100CEEC00D2D100B3BD00CBC800EB
:10005E00CEE700CEB400C9EA00D3CF00D0E700BA95
:10006E00A500D7D300B3F300D2FA00C3AE00C1FA95
:10007E00C4EA00C9DFC4EA00C2EDC4EA00D1F2C48A
:10008E00EA00BAEFC4EA00BCA6C4EA00B9B7C4EAF3
:10009E0000D6EDC4EA00CAF3C4EA00C5A3C4EA0060
:1000AE00BBA2C4EA00CDC3C4EA00C6DF00B0CB00D9
:1000BE00BEC500CAAE00B6AC00C0B000D4C200B31C
:1000CE00F500D8A5002020BBB6D3ADCAB9D3C32046
:1000DE0020002020B5E7D7D3D6C7C4DCCAB1D6D30B
:1000EE00202000B5E7D7D3D6C6D7F7C6E4C0D6CE04
:1000FE00DEC7EE00C4EA00CAB100B7D600C3EB00FB
:10010E00C4D6D6D3A3BA00A1EFB5F7D5FB00C4D69B
:10011E00B7D600C4D6CAB100B7D6D6D300D0A1CABE
:10012E00B100C8D5C6DA00D4C2B7DD00C4EAB7DD67
:10013E000000000FF01FF83FFC7FFE7C3E781E781B
:10014E001E781E781E783E783E785E785E789E78B1
:10015E009E791E791E7A1E7A1E7C1E7C1E781E7853
:10016E001E781E781E7C3E7FFE3FFC1FF80FF000AF
:10017E000000000038007800F801F801F80078005F
:10018E0078007800780078007800780078007800A1
:10019E007800780078007800780078007800780091
:1001AE007800780078007800780078007800780081
:1001BE000000000FF01FF83FFC7FFE7C3E781E789B
:1001CE001E781E781E781E781E783E007E00FC017A
:1001DE00F803F007E00FC01F803F007E007C007820
:1001EE000078007800781E7FFE7FFE7FFE7FFE0087
:1001FE000000000FF01FF83FFC7FFE7C3E781E785B
:10020E001E781E781E781E001E001E003E0FFC0F6C
:10021E00F80FF80FFC003E001E001E781E781E78A8
:10022E001E781E781E7C3E7FFE3FFC1FF80FF000EE
:10023E00000000001C003C007C007C00FC01FC0166
:10024E00FC03FC07BC07BC0F3C0F3C1E3C1E3C3C99
:10025E003C3C3C783C783C783C7FFE7FFE7FFE7FCA
:10026E00FE003C003C003C003C003C003C003C00DE
:10027E000000007FFE7FFE7FFE7FFE780078007814
:10028E0000780078007BF07FF87FFC7FFE7E3E7C5E
:10029E001E7C1E001E001E001E781E781E781E7804
:1002AE001E781E781E7C3E7FFE3FFC1FF80FF0006E
:1002BE000000000FF01FF83FFC7FFE7C3E781E789A
:1002CE001E781E7800780078007BF07FF87FFC7F28
:1002DE00FE7C3E781E781E781E781E781E781E785C
:1002EE001E781E781E7C3E7FFE3FFC1FF80FF0002E
:1002FE000000007FFE7FFE7FFE7FFE781E001E0048
:10030E003C003C0078007800F000F001E001E003D2
:10031E00C003C0078007800780078007800780071B
:10032E00800780078007800780078007800780008E
:10033E000000000FF01FF83FFC7FFE7C3E781E7819
:10034E001E781E781E781E781E7C3E3FFC1FF81FFE
:10035E00F83FFC7C3E781E781E781E781E781E783C
:10036E001E781E781E7C3E7FFE3FFC1FF80FF000AD
:10037E000000000FF01FF83FFC7FFE7C3E781E78D9
:10038E001E781E781E781E781E781E781E781E7CAB
:10039E003E7FFE3FFE1FFE0FDE001E001E001E787B
:1003AE001E781E781E7C3E7FFE3FFC1FF80FF0006D
:1003BE000000000000000000000000000007E00741
:1003CE00E007E007E007E007E000000000000000A3
:1003DE0000000000000000000007E007E007E00753
:1003EE00E007E007E0000000000000000000000051
:1003FE000000003000480049C033E806380C180CE5
:10040E00080C000C000C000C000608031001E000A4
:10041E000000000180024002C0024002C002400201
:10042E00C0024003C007E00FF00FF007E003C0006A
:10043E0000000000000000000000000000000000AE
:10044E00000000000000000000000000000000009E
:10045E000004AE530A57485526BD0D26500D95443F
:10046E0046AAB9056A4D09AD4224AEB604AE4A6A33
:10047E004DBE0A4D520D25465D52BA0B544E0D6AB5
:10048E0043296D37095B4B749BC10497540A4B4843
:10049E005B25BC06A55006D4454ADAB802B64D090E
:1004AE0057422497B704974A664B3E0D4A510EA504
:1004BE004656D4BA05AD4E02B644393738092E4BDE
:1004CE007C96BF0C95530D4A486DA53B0B554F05B9
:1004DE006A454AADB9025D4D092D422C95B60A9575
:1004EE004A7B4ABD06CA510B5546555ABB04DA4ED5
:1004FE000A5B43352BB8052B4C8A953F0E95520659
:10050E00AA487AD53C0AB54F04B6454A57390A5718
:10051E004D0526423E93350D954975AABE056A5185
:10052E00096D4654AEBB04AD4F0A4D434D26B70D73
:10053E00254B8D52BF0B54520B6A47696D3C095BBC
:10054E0050049B454A4BB90A4B4DAB25C206A554E8
:10055E0006D4496ADA3D0AB6510937465497BB04A8
:10056E00974F064B4436A5370EA54A86B2BF05AC4B
:10057E00530AB6475936BC092E500C96454D4AB80B
:10058E000D4A4C0DA54125AAB6056A497AADBD02A4
:10059E005D52092D475C95BA0A954E0B4A434B5551
:1005AE00370AD54A955ABF04BA530A5B48652BBC25
:1005BE00052B500A9345474AB906AA4C0AD5412441
:1005CE00DAB604B64A69573D0A4E510D26465E9379
:1005DE003A0D534D05AA4336B537096D4BB4AEBF30
:1005EE0004AD530A4D486D25BC0D254F0D52445D8B
:1005FE00AA380B5A4C056D4124ADB6049B4A7A4B72
:10060E00BE0A4B510AA5465B52BA06D24E0ADA42D0
:10061E00355B3709374B8497C1049753064B4866B1
:10062E00A53C0EA54F06B2444AB6380AAE4C092E6A
:10063E00423C97350C96497D4ABD0D4A510DA54554
:10064E0055AABA056A4E0A6D43452EB7052D4B8A3B
:10065E0095BF0A95530B4A476B553B0AD54F055A22
:10066E00454A5D380A5B4C052B423A93B6069349D0
:10067E007729BD06AA510AD54654DABA04B64E0AEF
:10068E0057434527380D264A8E933E0D52520DAADA
:10069E004766B53B056D4F04AE454A4EB90A4D4C03
:1006AE000D15412D92B5001F3B5A7897B5D4F30125
:1006BE00110130014E00030306010406020500037A
:0106CE000526
:0C1CDB00022C0000C104C105C103C102BD
:101CAD00C2A5D2A6D2A77580FFE58020E7FBC2A70B
:011CBD002204
:071C5C007F30121C637F06BC
:0E1C6300121CADC2A5C2A6D2A78F80C2A722B6
:061C8600C4540F2430FFDE
:0E1C8C00121CADD2A5C2A6D2A78F80C2A7227D
:061BDD007BFF7A0079276E
:101BE300120D9DFFD39400400C121C8C740129F933
:061BF300E43AFA80EB2247
:071C9A00C4540F2430F50DC6
:0C1CA100AF0D200603021C63121C8C22F5
:050003007F01021C63F7
:101AAA00C206750D80121CA17BFF7A00790E121BEB
:101ABA00E3C206750D90121CA17A00790E121BE37F
:0F1ACA00C206750D88121CA17A00790E021BE36B
:101C71007F30121C637F0C121C631200037F06125B
:051C81001C63021AAA19
:0416EE008F0F8B11BE
:1016F2007F36121C63ED64016003BD02097515801B
:10170200ED14C454F0FDED64036003BD040A7515C5
:1017120088ED24FDC454F0FDE4FEED24802EFF127A
:101722001C63E515250F14FF121C63E4FCE511B4DC
:101732000114AB120514E514AA137002051314F96F
:10174200120D9DF48011AB120514E514AA13700258
:10175200051314F9120D9DFF121C8C0CBC02CE0E47
:08176200BE10B77F36021C63C4
:061B7E008F0B8D0C8B0D96
:101B84007A0379FFE50E75F020A429F9EA35F0759A
:0B1B940012FFF5138914AF0B0216EED0
:1017E000C4540F75F040A4243FF9740135F0FA7B1E
:0317F000FF7D0377
:0817F3008F0B8B0C8A0D890E8F
:1017FB00ED24FE60071460082402704D7E80800289
:10180B007E88E50B2E14F50F7F36121C63ED6401F9
:10181B006005ED6403702DE4FDED2480FF121C6365
:10182B00AF0F121C63E4FCAB0C050EE50EAA0D709A
:10183B0002050D14F9120D9DFF121C8C0CBC02E756
:09184B000DBD20D57F36121C638F
:011854002271
:0D1CCE007F30121C637F0C121C5E020003AD
:031A790012000355
:101A7C007F36121C63121CCE7F36121C63E4FEEE02
:101A8C002480FF121C637F80121C63E4FDE4FF12B0
:0D1A9C001C8C121C8C0DBD10F40EBE20E23F
:011AA900221A
:101855007F30121B3AEF64AA6062E4FD7F8E121C92
:101865002E7D137F06121C2E7D057F03121C2E7DF7
:10187500107F05121C2E7D307F04121C2E7D177FD4
:1018850002121C2EE4FD7F01121C2EE4FDFF121C2A
:101895002E7DA57F90121C2E7DAA7F30121C2EE472
:1018A500F50BE50B2430FF7DAA121C2E050BE50B6D
:0C18B500C3943840ED7D807F8E121C2E05
:0118C1002204
:0A1CE800121CF2C291121CF2D291FC
:011CF20022CF
:0A1CF300D290121CEDC290021CF208
:0A1CFD00C290121CEDD290021CF2FE
:081B9F00121CF37FD0121BBFE2
:101BA700D291121CF230900BE50DC394FA50040544
:081BB7000D80F2C291021CF244
:0A1D0700D290121CF2D291021CF2DD
:101BBF00E4FEEF25E0FFC291121CF29290121CED91
:0E1BCF000EBE08EEC291121CF2D290021CF261
:101B5900C291121CF2D290121CF2E4FED291121C14
:101B6900F2EF25E0FDA290E4334DFFC291121CF281
:041B79000EBE08E8AC
:011B7D002245
:101C2E00AC07121B9FAF04121BBF121BA7AF0512EE
:081C3E001BBF121BA7021CFDD5
:071B33007BFF121BE37F089A
:021B3A00AD07F5
:101B3C00121B9FAF05121BBF121BA7121CF37FD1E8
:0C1B4C00121BBF121BA7121B59121CFD1C
:011B5800226A
:101B0700E4FEFDC291121CF2AD07ED30E704D2905E
:101B17008002C290121CE8ED25E0FDC291121CF272
:0B1B27000EBE08E6D290121CE8C2912E
:011B32002290
:1019CF00D290121CF2C291121CF2E4FDD291121CA1
:1019DF00F2EE25E0FE121CF2A290E4334206121C36
:1019EF00F2C291121CF20DBD08E2EF6004D290809A
:1019FF0002C290121CEDC291121CF2D290121CF274
:021A0F00AF0620
:011A110022B2
:101C4600121CF37F90121B07121CF27FEE121B0769
:061C5600121CF2021CFD4D
:101A1200121CF37F90121B07121CF27FAA121B07E3
:101A2200121CF2121CF37F91121B07121CF2E4FF2C
:101A32001219CF8F2D121CF27F011219CF8F2C1287
:051A42001CF2021CFD76
:10198300121A12121C46E52DFE7C00E4252CFFECF6
:101993003E547FFEEF7803CEC313CE13D8F9FFE492
:1019A3008F0E8E0DF50CF50B7F357E0CFDFCAB0E0B
:1019B300AA0DA90CA80B120E1DE47B107A27F9F8C7
:0B19C300120EA88F0E8E0D8D0C8C0BE9
:0119CE0022F6
:1015E4001219838E228F237C037DE8120DC87E009E
:1015F4007F64CFCDCFCECCCE120DC8EF2430F53DD5
:10160400AE22AF237C007D64120DC87E007F0ACF1A
:10161400CDCFCECCCE120DC8EF2430F53EAE22AFE6
:10162400237C007D0A120DC8ED2430F53FE53DB45E
:101634003003753D20750E01E4FB7D027F05121B0E
:101644007E121C5C7F95121C63AF3D121C8CAF3E56
:10165400121C8C7F2E121C8CAF3F121C8CE4F50ED6
:08166400FB7D027F08021B7EE2
:06122700AD14AC13AF1082
:10122D00EF14B40D00400302137D90124575F003C9
:10123D00A4C58325F0C5837302126C0212810212BC
:10124D00960212AB0212C00212D50212EA0212FF6E
:10125D0002131402132902133E021353021368746E
:10126D005F2DF58274043CF583E49320E3037F0046
:10127D00227F0122745F2DF58274043CF583E49383
:10128D0020E2037F00227F0122745F2DF58274041A
:10129D003CF583E49320E1037F00227F0122745FFC
:1012AD002DF58274043CF583E49320E0037F002246
:1012BD007F012274602DF58274043CF583E4932044
:1012CD00E7037F00227F012274602DF58274043CB8
:1012DD00F583E49320E6037F00227F012274602DC5
:1012ED00F58274043CF583E49320E5037F00227FAF
:1012FD00012274602DF58274043CF583E49320E49F
:10130D00037F00227F012274602DF58274043CF569
:10131D0083E49320E3037F00227F012274602DF587
:10132D008274043CF583E49320E2037F00227F0165
:10133D002274602DF58274043CF583E49320E1035F
:10134D007F00227F012274602DF58274043CF583A9
:10135D00E49320E0037F00227F012274612DF5824A
:10136D0074043CF583E49320E7037F00227F012280
:03137D007F0022CC
:100B6A00E50CC4540FFBE50C540FFAEB75F00AA41C
:100B7A002AF50CE50DC4540FFBE50D540FFAEB757D
:100B8A00F00AA42AF50DE50EC4540FFBE50E540F26
:100B9A00FAEB75F00AA42AF50EE50C200607246381
:100BAA00FFE433800624FFFFE434FFFE7C007D036C
:100BBA00120DB68E138F1474612514F582740435E0
:100BCA0013F583E493FE5460FB7805FF0880010364
:100BDA00D8FDFBEE541FFABB010514F50F8005EA98
:100BEA00241EF50FE50DC3940AE50D500B9006B3CC
:100BFA0093250EFFE433801525E024A9F582E43419
:100C0A0006F583740193250EFFE4933400CF24FF85
:100C1A00F512EF34FFF511E50DD39402400EE50C01
:100C2A00540370080512E51270020511AF0F7E0019
:100C3A00C3E5129FE5119E5003020CC5E5129FF50C
:100C4A0012E5119EF511750D01751001121227EFAB
:100C5A0024FF9207C2082007047B1D80027B1E74B2
:100C6A005F2514F58274043513F583E49354F0FA7E
:100C7A007804FF08800103D8FDFAEBFF7E00C3E584
:100C8A00129FE5119E402FE5129FF512E5119EF580
:100C9A00110510E50DB50209B208200806050D80F8
:100CAA0002050D121227EF24FF92072007047B1D6D
:100CBA0080C87B1E80C4E512020D50C3E50F951251
:100CCA00F50FE50C7007750C63D2068002150C74DB
:100CDA00FD2514F51474FF3513F513750D0CFE7408
:100CEA005F2514F58274043EF583E49354F0FA7890
:100CFA0004FF08800103D8FDFA700575100C800303
:100D0A0075100DC208121227EF24FF92072007045C
:100D1A007B1D80027B1EE50FD39B4026E50F9BF5CA
:100D2A000F1510200802150DE50DB50202B20812C2
:100D3A001227EF24FF92072007047B1D80D87B1E11
:100D4A0080D4C3EB950F04F50EA2069200E50C754C
:100D5A00F00A84FB7804FF08800123D8FDFBE50C28
:100D6A0075F00A84AAF0EB4AF538850D35850E3BF5
:010D7A002256
:10176A00121C5CE50BC4540FFFE50B540FFEEF751A
:10177A00F00AA42EF50BE50CC4540FFFE50C540F28
:10178A00FEEF75F00AA42EF50CE50DC4540FFFE523
:10179A000D540FFEEF75F00AA42EF50D20060674FF
:1017AA0064250BF50BE50B1313543F250B75F00756
:1017BA0084AEF0E50D2EFFE50C9006C2932FFEE5F0
:1017CA000B54037008E50CC3940350011EEE75F028
:0517DA00078485F02BDF
:0117DF0022E7
:10192300121C5C7F80121C637BFF7A00791F121BE1
:10193300E37F06121B3A8F30E530121C86E5301226
:101943001C877F05121B3A8F297A007922121BE329
:10195300D206E529121C9AD206E529121C9B7F04A4
:10196300121B3A8F257A007922121BE3D206E52552
:10197300121C9AD206E525540F2430F50D021CA142
:10166C007F04121B3AAC077F05121B3AAB077F06AF
:10167C00121B3AC2068F0B8B0C8C0D12176AAE2BF9
:10168C007F87121C63EE70097BFF7A007924121B92
:10169C00E3BE0603121BDDBE05097BFF7A00792A27
:1016AC00121BE3BE04097BFF7A00792D121BE3BEEB
:1016BC00030A7FC8121C8C7FFD121C8CBE02097B96
:1016CC00FF7A007930121BE3BE01097BFF7A0079A7
:1016DC0033121BE37F85121C637BFF7A0079360281
:0216EC001BE3FE
:1014B6007F02121B3A8F33E5337F011217E0E533C3
:1014C600540F75F040A4243FF9740135F0FA7BFF00
:1014D6007D037F021217F37BFF7A0379BF7D037FBB
:1014E600031217F37F01121B3A8F34E5347F04127F
:1014F60017E0E534540F75F040A4243FF974013524
:10150600F0FA7BFF7D037F051217F37BFF7A0379E1
:10151600BF7D037F061217F3E4FF121B3A8F31E5F6
:1015260031C4540F75F040A4243FF9740135F0FA24
:101536007BFF7D037F071217F3E531540F75F040EB
:10154600A4243FF9740135F0FA7BFF7D037F08027E
:0215560017F389
:1006CF007F88121C63E538C4540F75F00AA4FFE548
:1006DF0038540F2FFF75F00C84AEF08E0CEF75F0C1
:1006EF000A84ADF08E0DAF05EFB40A004003020788
:1006FF00A8900707F8282873020725020732020778
:10070F003F02074C02075902076602077302078070
:10071F0002078D02079A7F90121C637BFF7A007984
:10072F003B80737F90121C637BFF7A00793D80665C
:10073F007F90121C637BFF7A00794080597F901263
:10074F001C637BFF7A007943804C7F90121C637B84
:10075F00FF7A007946803F7F90121C637BFF7A00FF
:10076F00794980327F90121C637BFF7A00794C802D
:10077F00257F90121C637BFF7A00794F80187F9042
:10078F00121C637BFF7A007952800B7F90121C63DF
:10079F007BFF7A007955121BE3E50DB40C00400383
:1007AF0002087C9007B9F82828730207DD0207EBCF
:1007BF000207F902080602081302082002082D0298
:1007CF00083A02084702085402086102086E7F9136
:1007DF00121C637BFF7A0079580208797F91121CF3
:1007EF00637BFF7A00795B0208797F91121C637B30
:1007FF00FF7A00795E80737F91121C637BFF7A0012
:10080F00796180667F91121C637BFF7A0079648027
:10081F00597F91121C637BFF7A007967804C7F911F
:10082F00121C637BFF7A00796A803F7F91121C63F1
:10083F007BFF7A00796D80327F91121C637BFF7A88
:10084F0000797080257F91121C637BFF7A0079738A
:10085F0080187F91121C637BFF7A007976800B7F63
:10086F0091121C637BFF7A007979121BE3E50CB4BC
:10087F000C00400302095090088DF82828730208D5
:10088F00B10208BF0208CD0208DA0208E70208F435
:10089F0002090102090E02091B0209280209350289
:1008AF0009427F92121C637BFF7A00797C02094D0B
:1008BF007F92121C637BFF7A00798102094D7F9230
:1008CF00121C637BFF7A00798680737F92121C6300
:1008DF007BFF7A00798B80667F92121C637BFF7A95
:1008EF0000799080597F92121C637BFF7A00799573
:1008FF00804C7F92121C637BFF7A00799A803F7F36
:10090F0092121C637BFF7A00799F80327F92121CB8
:10091F00637BFF7A0079A480257F92121C637BFF93
:10092F007A0079A980187F92121C637BFF7A007975
:10093F00AE800B7F92121C637BFF7A0079B3121B80
:01094F00E3C4
:010950002284
:10095100A201920685300C85290D85250E120B6AA0
:10096100121C5C7F90121C63E535B4010A7FD5121D
:100971001C8C7FFD121C8CE535B402097BFF7A00CB
:100981007930121BE3E535B4030A7FC8121C8C7F52
:10099100FD121C8CE535B404097BFF7A00792D1218
:1009A1001BE3E535B405097BFF7A00792A121BE3C5
:1009B100E535B40603121BDDE535B407097BFF7A83
:1009C1000079B8121BE3E535B408097BFF7A007999
:1009D100BB121BE3E535B409097BFF7A0079BE122E
:1009E1001BE3E535B40A097BFF7A0079C1121BE3E9
:1009F100E535B40B097BFF7A0079C4121BE3E535B9
:100A0100B40C097BFF7A0079C7121BE37BFF7A00E4
:100A110079CA121BE3E53B75F00A8470077A007905
:100A2100CD121BE3E53B75F00A84FF6401702CE5F0
:100A31003B75F00A84E5F070047E0180027E00BF00
:100A410001047F0180027F00EF5E7BFF60067A0078
:100A510079CD80047A0079C1121BE3E53B75F00A78
:100A610084FF6402702CE53B75F00A84E5F07004A4
:100A71007E0180027E00BF02047F0180027F00EFC1
:100A81005E7BFF60067A00793080047A0079D012AB
:100A91001BE3E53B75F00A84FFBF030A7FC8121C04
:100AA1008C7FFD121C8CE53B75F00A84AFF0BF0111
:100AB100097BFF7A007933121BE3E53B75F00A8469
:100AC100AFF0BF02097BFF7A007930121BE3E53BEF
:100AD10075F00A84AFF0BF030A7FC8121C8C7FFD3A
:100AE100121C8CE53B75F00A84AFF0BF04097BFF53
:100AF1007A00792D121BE3E53B75F00A84AFF0BF54
:100B010005097BFF7A00792A121BE3E53B75F00AA0
:100B110084AFF0BF0603121BDDE53B75F00A84AF1D
:100B2100F0BF07097BFF7A0079B8121BE3E53B753B
:100B3100F00A84AFF0BF08097BFF7A0079BB121B72
:100B4100E3E53B75F00A84AFF0BF09097BFF7A004A
:100B510079BE121BE3E53B75F00A84E5F070097B71
:090B6100FF7A0079C1121BE322A6
:101BF900E4FF121B3A8F0BE50B540FFFBF050312CD
:0B1C09000951E50B540F70031206CFC9
:011C140022AD
:101A47007F81121C637BFF7A0079D3121BE37F909F
:101A5700121C637A0079E0121BE37F88121C637AF9
:101A670000790E121BE37F98121C637A0079F1024A
:021A77001BE36F
:041C15007F147E00BA
:101C1900EF1F70011E144E600BE4FDEDC3947D505F
:041C2900EF0D80F744
:011C2D002294
:0613800075363BE4F52E7A
:101386007F06121B3A8F467F05121B3A8F3C7F045D
:10139600121B3A8F377F03121B3A8F2BC206750D2D
:1013A60080121CA17BFF7A00791F121BE3E546120F
:1013B6001C86E546121C877A017902121BE3E53C7E
:1013C600121C86E53C121C877A0079CA121BE3E5DB
:1013D60037121C86E537121C877A007924121BE324
:1013E6007F02121B3AEF653960077F02121B3A8FA4
:1013F60039C206750D91121CA1E539121C86E53914
:10140600121C877BFF7A017905121BE37F01121BF1
:101416003AEF653A60077F01121B3A8F3AE53A12B6
:101426001C86E53A121C877BFF7A017908121BE3BA
:10143600E4FF121B3AEF65436007E4FF121B3A8F85
:1014460043E543121C86E543121C877A01790B1289
:101456001B33EF654360077F08121B3A8F43C206B2
:10146600750D88121CA17A01790E121B33EF6528BF
:1014760060077F08121B3A8F28E528121C86E5288C
:10148600121C877BFF7A017905121BE37F09121B69
:101496003AEF652A60077F09121B3A8F2AE52A125E
:1014A6001C86E52A121C877BFF7A017908021BE35A
:020F3A008F0B1B
:100F3C00E4F50C121C5CC206750D98121CA17BFF0B
:100F4C007A017915121BE3E50BB406137A01791CAF
:100F5C00121BE37545091213801218C2121386E591
:100F6C000BB4051B7BFF7A017921121BE375450835
:100F7C00753617E4F52E1213861218C2121386E575
:100F8C000BB404157BFF7A017926121BE37545011E
:100F9C001213801218C2121386E50BB4031B7BFFCD
:100FAC007A01792B121BE3754502753617E4F52E81
:100FBC001213861218C2121386E50B640260030228
:100FCC00108D7BFF7A017930121BE37545047F0588
:100FDC00121B3A8F3CE53CC4540FF526E53C540FEC
:100FEC00F527E52675F00AA42527F53C7F06121B8C
:100FFC003A8F46E546C4540FF526E546540FF527BF
:10100C00E52675F00AA42527F546E53CB4020CE567
:10101C00465403600675361C752E01E53CB4020C73
:10102C00E5465403700675361D752E01E53C6401CA
:10103C006023E53C6403601DE53C64056017E53CFA
:10104C0064076011E53C6408600BE53C640A6005CC
:10105C00E53CB40C0675361F752E01E53C64046046
:10106C0011E53C6406600BE53C64096005E53CB4A5
:10107C000B0675361E752E011213861218C212132A
:10108C0086E50BB4011B7BFF7A017935121BE375E6
:10109C00450575360C752E011213861218C21213E3
:1010AC0086E50B701B7BFF7A01793A121BE37545C1
:1010BC0006753663E4F52E1213861218C2121386C7
:0110CC002201
:1018C200AF45121B3AEFC4540F75F00AA4FCAF45A2
:1018D200121B3AEF540F2CF52F20A202052F20A342
:1018E20002152FD3E5366480F8E52F648098400313
:1018F200852E2FC3E52E6480F8E52F64809850036F
:1019020085362FE52F75F00A120D7BC454F0FFE5E2
:101912002F75F00A120D7BAEF0EF2EFDAF45021CC3
:011922002E96
:101CBE00758901758C3C758AAFD2AFD2A9D28C22B0
:1010CD00E4F508F509D2A0D2A1D2A2D2A3D2A4D21E
:1010DD00B6D2B7121D07121C71121855121A477F7E
:1010ED00C87E00121C19121A79121CBE20050F128F
:1010FD001923121BF91214B61215E412166C20A046
:10110D0030121C1520A0173005140508E508C394EE
:10111D00074003E4F50830A0FDAF08120F3A20A0F8
:10112D000D20050A121A79D205AF08120F3A30A018
:10113D00FD20A13DD203121C1520A108300505C2CA
:10114D0005E4F50820A11220050F120003121A7CE8
:10115D00121C5C121A4730A1FD120003121A7C12E8
:10116D00192312166C1209511214B61215E430A17E
:10117D00FD20A214300511121C1520A20830050502
:10118D00AF08120F3A30A2FD20A314300511121C26
:10119D001520A308300505AF08120F3A30A3FD2026
:1011AD00A411121C15B204300404D2B68002C2B6CA
:1011BD0030A4FD7F02121B3AAC077F08121B3AEFD9
:1011CD006C70527F01121B3AAC077F09121B3AEF6C
:0311DD006C7042F1
:1011E000300334200531D202F50AC3E50A64809445
:1011F0008440030210F9E50A648094844003E4F516
:101200000AC2B77F507E00121C19D2B77F7D7E00C4
:0F121000121C19050A80D33002030210F9D20311
:08121F000210F9C2020210F9ED
:03000B00021AD9FD
:101AD900C0E0C0D075D000C005C006C007758C3CF9
:101AE900758AAF20A30D30020A121C15C203D2B7A2
:0E1AF90030A3FDD007D006D005D0D0D0E0320B
:030000000215588E
:0C155800787FE4F6D8FD75814602159FEF
:100D7B00C2D530F707B2D563F0FF05F030E70CB200
:100D8B00D5F4048463F0FF05F080018430D502F4C0
:020D9B00042230
:100D9D00BB010689828A83E0225002E722BBFE0254
:090DAD00E32289828A83E4932287
:100DB600EF8DF0A4A8F0CF8CF0A428CE8DF0A42E51
:020DC600FE220B
:100DC800BC000BBE0029EF8DF084FFADF022E4CC0F
:100DD800F875F008EF2FFFEE33FEEC33FCEE9DECD8
:100DE800984005FCEE9DFE0FD5F0E9E4CEFD22ED1E
:100DF800F8F5F0EE8420D21CFEADF075F008EF2F68
:100E0800FFED33FD4007985006D5F0F222C398FD58
:050E18000FD5F0EA22F5
:100E1D00E88FF0A4CC8BF0A42CFCE98EF0A42CFC74
:100E2D008AF0EDA42CFCEA8EF0A4CDA8F08BF0A4F2
:100E3D002DCC3825F0FDE98FF0A42CCD35F0FCEB51
:100E4D008EF0A4FEA9F0EB8FF0A4CFC5F02ECD3916
:0F0E5D00FEE43CFCEAA42DCE35F0FDE43CFC2283
:100E6C0075F008758200EF2FFFEE33FECD33CDCC3D
:100E7C0033CCC58233C5829BED9AEC99E5829840C0
:100E8C000CF582EE9BFEED9AFDEC99FC0FD5F0D69D
:100E9C00E4CEFBE4CDFAE4CCF9A88222B800C1B9C7
:100EAC000059BA002DEC8BF084CFCECDFCE5F0CB05
:100EBC00F97818EF2FFFEE33FEED33FDEC33FCEB3E
:100ECC0033FB10D703994004EB99FB0FD8E5E4F9F9
:100EDC00FA227818EF2FFFEE33FEED33FDEC33FCE6
:100EEC00C933C910D7059BE99A4007EC9BFCE99ADA
:100EFC00F90FD8E0E4C9FAE4CCFB2275F010EF2F1F
:100F0C00FFEE33FEED33FDCC33CCC833C810D7071E
:100F1C009BEC9AE899400AED9BFDEC9AFCE899F859
:0E0F2C000FD5F0DAE4CDFBE4CCFAE4C8F922EC
:101564000210CDE493A3F8E493A34003F68001F2C0
:1015740008DFF48029E493A3F85407240CC8C33388
:10158400C4540F4420C8834004F456800146F6DF57
:10159400E4800B0102040810204080901CDBE47EF0
:1015A400019360BCA3FF543F30E509541FFEE4934C
:1015B400A360010ECF54C025E060A840B8E493A313
:1015C400FAE493A3F8E493A3C8C582C8CAC583CA3E
:1015D400F0A3C8C582C8CAC583CADFE9DEE780BEF6
:011CE70000FC
:00000001FF
